S00E00004D6F746F72732E7372656392
S113000071C0000079C0000077C0000075C0000016
S113001073C0000071C000006FC000006DC000001C
S11300206BC0000069C0000067C0000065C000002C
S113003063C0000061C000005FC000005DC000003C
S11300405BC0000059C0000057C0000055C000004C
S113005053C0000051C000004FC000004DC000005C
S11300604BC0000049C0000047C0000045C000006C
S113007043C0000041C000003FC000003DC000007C
S11300803BC0000039C0000037C0000035C000008C
S113009033C0000031C000002FC000002DC000009C
S11300A02BC0000029C0000027C0000025C00000AC
S11300B023C0000021C000001FC000001DC00000BC
S11300C01BC0000019C0000017C0000015C00000CC
S11300D013C0000011C000000FC000000DC00000DC
S11300E00BC0000011241FBECFEFD1E2DEBFCDBF95
S11300F000E00CBF02D0DAC083CF24D05CD060D043
S113010064D0C1E0D2E0C0D022D03BD02197D9F74F
S11301102FEF85EA9EE0215080409040E1F700C037
S11301200000C1E0D2E0B9D012D02BD02197D9F78A
S11301302FEF85EA9EE0215080409040E1F700C017
S11301400000DFCF089A099A109A11980895119A1D
S113015088EC90E0109A2FEF31EE44E021503040CB
S11301604040E1F700C0000010982FEF31EE44E06A
S1130170215030404040E1F700C00000019751F7A2
S11301800895119888EC90E0109A2FEF31EE44E036
S1130190215030404040E1F700C0000010982FEF9C
S11301A031EE44E0215030404040E1F700C000000F
S11301B0019751F708950A9A0B9A129A1398089581
S11301C00C9A0D9A149A1598089584B1806B84B989
S11301D085B18F7485B908952C9A2D982D982F98F0
S11301E08FE19EE40197F1F700C0000008952C9A76
S11301F02F9A2D982D988FE19EE40197F1F700C076
S1130200000008952F9A2C982D982D988FE19EE444
S11302100197F1F700C0000008952F9A2D9A2C98A9
S11302202D988FE19EE40197F1F700C00000089536
S11302302D9A2C982D982F988FE19EE40197F1F731
S113024000C0000008952D9A2D9A2C982F988FE1C4
S11302509EE40197F1F700C0000008952D9A2C98B0
S11302602D982F988FE19EE40197F1F700C00000CC
S113027008952D9A2C9A2D982F988FE19EE401973A
S1130280F1F700C000000895A7DFB1DFBBDFC5DFD1
S1130290CFDFD9DFE3DFEDCF0895EBDFDFDFD3DF9F
S11302A0C7DFBBDFAFDFA3DF97CF0895F894FFCF9D
S9030000FC
